:020000040800F2
:10000000F02F0020690B0008D50B0008D70B000863
:10001000D90B0008DB0B0008DD0B00080000000016
:10002000000000000000000000000000DF0B0008DE
:10003000E10B000800000000E30B0008E50B0008DE
:10004000B90B0008B90B0008B90B0008B90B000880
:10005000B90B0008B90B0008B90B0008B90B000870
:10006000B90B0008B90B0008B90B0008B90B000860
:10007000B90B0008B90B0008B90B0008B90B000850
:10008000B90B0008B90B0008B90B0008B90B000840
:10009000B90B0008B90B0008B90B0008B90B000830
:1000A000B90B0008B90B0008B90B0008B90B000820
:1000B000B90B0008B90B000800000000B90B0008DC
:1000C000B90B00080000000000000000B90B000898
:1000D00000000000B90B0008B90B0008B90B0008BC
:1000E000B90B0008B90B0008000000000000000078
:1000F0000000000000000000000000000000000000
:1001000000000000000000000000000000000000EF
:100110000000000000000000B90B0008B90B000847
:1001200000000000000000000000000000000000CF
:1001300000000000000000000000000000000000BF
:10014000B90B0008B90B000800000000B90B00084B
:10015000B90B0008B90B0008B90B0008B90B00086F
:10016000B90B0008B90B00080000000000000000F7
:10017000000000000000000000000000000000007F
:0801800000000000B90B0008AB
:1001880010B5054C237833B9044B13B10448AFF3C9
:1001980000800123237010BD08000020000000002B
:1001A800540C000808B5034B1BB103490348AFF3CF
:1001B800008008BD000000000C000020540C00085E
:1001C80030B50A4D01444FF0FF33814201D1D84385
:1001D80030BD10F8012B5340082243F300042C4093
:1001E800013A84EA5303F8D1EFE700BF2083B8ED62
:1001F800204B21495A6942F420225A619A6942F4F3
:1002080080429A61DA6942F48022DA614FF09043C1
:100218001A6822F4701242F420121A605A6A22F400
:100228007F6242F4EE625A62D3F8002822F4700228
:1002380042F42002C3F80028D3F8242822F47F428D
:1002480042F4EE42C3F824281A6822F0404242F0F1
:1002580080421A604FF000429A614FF040234522D5
:10026800C1F80C28C3F80C280D22C1F80028C3F8DF
:10027800002870470010024000300140124B134A1A
:1002880070B51C680E254FF0402301380BD3012CA4
:100298000BD0D2F81C68B60606D509B100230B604E
:1002A800D2F82408C0B270BD4CB1D3F81C68B606A9
:1002B80005D509B101220A60D3F82408F2E7C2F88B
:1002C8002058C3F82058E0E7000000200030014023
:1002D8000021FFF7D3BFC3691B06FCD581627047B5
:1002E800024A136943F080031361704700200240FB
:1002F800024AD368DB07FCD4704700BF00200240E5
:100308000D4910B53424FFF7F3FFCC600B6943F0B7
:1003180002030B6148610B6943F040030B61FFF76F
:10032800E7FF0B6923F002030B61C86810F01400A3
:100338001CBFCC60012010BD00200240224A38B505
:100348001368506803F16043B3F5405F28D800F0A4
:100358007F4000F17842504250411C4C1C4BD4F86D
:1003680000289A421ED1D4F80C28D4F80038D4F8C2
:100378000458D4F808186B404B409A4212D1D4F86C
:100388000438B3F5684F0DD848B1D4F804180E48AE
:10039800FFF716FFD4F80838C31A5842584138BD39
:1003A8000020DAE7094BD3F80028013209D1D3F845
:1003B8000428013205D1D3F80838013318BF0020CA
:1003C800EDE70020EBE700BF0010000800F0000890
:1003D8005AA534F370B5144C1646FFF789FF236904
:1003E80043F001032361013100250A7811F8013C2B
:1003F80043EA02234353FFF77BFFE36813F0140338
:100408000AD10235AE4201F10201EED8226922F08A
:1004180001022261184606E03423E360236923F0D1
:1004280001032361012070BD00200240174B1A68A8
:10043800174B22EAE271012A10B5044653F821004D
:1004480017D0AA21FFF747FF5521FFF744FF2146A0
:10045800FFF741FFE143C9B2FFF73DFFC3695B0600
:10046800FCD5012A02BF4FF090434FF000429A6139
:1004780010BD4FF090434FF4004199614FF49663DB
:100488001946013B0029DCD000BFF9E70000002035
:10049800AC0C00081FB5094B0FCB6C4684E80F0065
:1004A800102221460648FFF795FF9120FFF718FF15
:1004B800FFF7BCFF4FF0FF3004B010BD6C0C000814
:1004C80000F800082DE9F04F9E4B9F4F0122C3F81A
:1004D800182400244FF400328DB0A146C3F8182424
:1004E8004FF028084FF0FF3307A938460793FFF766
:1004F800C5FE002806DAB8F1000F00F0E98008F11F
:10050800FF38EFE7AA28EDD13846FFF7E1FE552876
:10051800E8D13846FFF7DCFE132840F08A808B4B81
:10052800DDF81C80C3F800804FF0000B08AB38469C
:100538000193FFF7CDFE0028019B05DA9120FFF714
:1005480075FF4FF02808CDE70BF1010BBBF1080F41
:1005580003F8010BEBD19DF8203063F307059DF8F4
:10056800213063F30F259DF8223063F317459DF87A
:10057800233063F31F659DF8243063F307069DF865
:10058800253063F30F269DF8263063F317469DF850
:10059800273063F31F66002ED0D005F17843B3F5FA
:1005A800803FCBD8C5F1006303F580339E42C5D8A0
:1005B8009020FFF73BFF28EAE872654B3146284652
:1005C80053F822B0FFF7FCFDB8F1010F02461BD02B
:1005D8000023B34225D3002322FA03F1C9B25846B7
:1005E8000193FFF778FE019B0833202BF4D1DBF849
:1005F8001C305906FBD5B8F1010F02BF4FF09043EC
:100608004FF000429A619CE74FF090434FF400414D
:1006180099614FF496631946013B0029D8D000BF71
:10062800F9E7E95C01935846FFF755FE019B013352
:10063800CFE710287FF456AF444B079A424F1A6011
:1006480008AE00253846FFF743FE002805DA91205A
:10065800FFF7ECFE4FF0FF343CE00135082D06F8BB
:10066800010BEFD19DF8203063F307049DF821308A
:1006780063F30F249DF8223063F317449DF8233069
:1006880063F31F649DF8243063F307099DF8253050
:1006980063F30F299DF8263063F317499DF8273037
:1006A80063F31F69631EB3F5684FD0D2294B2A4DF7
:1006B8001A692A4E120641BF294A5A6002F1883245
:1006C8005A602846FFF71CFE40B1FFF709FEBEE757
:1006D8006FF0010420460DB0BDE8F08F05F5006508
:1006E800B542EED12846FFF70BFE05460028ECD1AF
:1006F8009020FFF79BFE184BCDE902534FF0FF36D1
:100708001848FFF7E5FDAA2860D10F48FFF7E0FD7C
:1007180055285BD10C48FFF7DBFD1128804601D036
:10072800142853D1DFF820B008AB002758460193AE
:10073800FFF7CEFD0028019B16DA0DB0BDE8F04F9B
:10074800FFF7A8BE00100048400D0300000000207D
:10075800AC0C0008002002400010000800F8000857
:100768002301674500093D000137062F03F8010BF7
:10077800DCD19DF82030BDF82470029A63F3070A93
:100788009DF8213063F30F2A9DF8223063F3174A4E
:100798009DF8233063F31F6A07EB0A0393426AD874
:1007A800002F68D0DFF804B2002258460192FFF704
:1007B8008FFD0028019AC0DB013293B2BB42F4D30B
:1007C800B8F1140F4BD09020FFF730FE029B9C42EB
:1007D80096D8DFF8F081754F4046FFF779FDAA28D3
:1007E800FAD13846FFF774FD5528F5D13846FFF79A
:1007F8006FFD1228F0D19DB16D4FB5F5006FC5F5AD
:1008080000624FF0FF0188BF0022781900F0F2F96A
:1008180003984FF400623946FFF7DCFD00288CD1BD
:10082800F6434E4589D163482146FFF7C9FC814507
:1008380083D1614B6148CDF82890CDE9083484EA2A
:1008480009045C40102208A90B94FFF7C3FD044675
:10085800002800F09E80FFF71DFE04463AE7DFF807
:100868004C8104274046FFF733FD0028FFF665AFAB
:10087800013FF7D1A7E7029A92457FF45EAF9C4209
:10088800FFF45BAF7B19B3F5006F3FF656AF484BEB
:10089800464A2B444FF0000B049319465B465819FF
:1008A800019098B2B8422ED3B8F1140F3BD13F4B08
:1008B80007AA4FF0000818460592FFF709FD00281F
:1008C8003A4B059AFFF639AF08F10108B8F1040F61
:1008D80002F8010BEFD19DF81C30049863F3070B65
:1008E8009DF81D3063F30F2B9DF81E3063F3174BF3
:1008F8009DF81F30394663F31F6BFFF761FC5845BD
:1009080011D0922060E7104605930191FFF7E0FCB3
:10091800059B264A0199002803F10103FFF60DAF54
:1009280001F8010BBBE72249019B9D421ED3B3F599
:10093800006F0CD11E4903981A46FFF74BFD00289B
:100948007FF4FBAE039B019003F500630393029BC6
:100958001B4A3B440293D2F8143483F00203C2F8D2
:1009680014349020FFF762FD019D2FE76B5C5E4019
:10097800082346F3000222F0925222F4EF2222F4D6
:100988009B6222F00702013B82EA5606F1D101354B
:10099800CAE7FFF7A5FC0A4B0122C3F81824022274
:1009A800C3F818249020FFF741FD93E6400D03009B
:1009B80024000020001000085AA534F300F80008AD
:1009C8000010004800093D002DE9F8435B4C5C4DE0
:1009D800636943F460236361A36943F00053A3612F
:1009E800584B40F2FF32C3F8982700264FF0030E09
:1009F80001274FF0020C95F804802B6842461968CD
:100A080052000EFA02F007FA02F921EA000141EA5F
:100A180009011960596807FA08F921EA09015960BA
:100A2800D968013621EA00010CFA02F008F1100237
:100A3800014307FA02F2062ED96005F108059A610A
:100A4800D9D16369404A43F480036361D2F8003422
:100A580023F00F0343F00503C2F800344FF02023BE
:100A68000021D3F8F02FC3F8F01F384B9A420FD16A
:100A7800FFF7BEFB364D4FF0FF36FFF723FD38B1C9
:100A8800023001D02E60F8E7FFF758FC0028F9D0B3
:100A9800FFF754FCF8B12F4B2F4D18685968002206
:100AA800C5F800284FF04025C5F80028A26922F4AF
:100AB8008042A261E26922F48022E26172B64FF0BC
:100AC800E022C2F8083DBFF34F8FBFF36F8F80F36A
:100AD800088862B68847FFF78BFB1B4C1E4D012622
:100AE8004FF40033C4F81864C4F818341B4B4FF0A3
:100AF8004021D5F81C28D1F81C080243900615D4CB
:100B0800013BF6D14FF48033C4F818340223C4F8FB
:100B18001834124B4FF04021D5F81C28D1F81C0886
:100B28000243920602D4013BF6D1D9E7FFF7CAFC8B
:100B3800074B4FF0FF321A60D2E700BF00100240A7
:100B48007C0C000800700140001000487ADA07B0F9
:100B5800000000200010000800300140801A060044
:100B6800DFF834D000F03CF80C480D490D4A00235A
:100B780002E0D458C4500433C4188C42F9D30A4A4A
:100B88000A4C002301E013600432A242FBD300F0B8
:100B980039F8FFF719FFFEE7F02F002000000020CA
:100BA80008000020BC0C00080800002028080020CD
:100BB800FEE70000034A044B11681B780B441360DE
:100BC800704700BF2408002004000020FEE7FEE76D
:100BD800FEE7FEE7FEE7704770477047FFF7EABF9A
:100BE800034AD2F8883043F47003C2F8883070475B
:100BF80000ED00E002440346934200D1704703F839
:100C0800011BF9E770B50D4D0D4C641BA4100026AF
:100C1800A64209D10B4D0C4C00F018F8641BA41027
:100C28000026A64205D170BD55F8043B9847013609
:100C3800EEE755F8043B98470136F2E7B40C000894
:100C4800B40C0008B40C0008B80C0008F8B500BFD4
:100C5800F8BC08BC9E467047F8B500BFF8BC08BC95
:040C68009E467047ED
:100C6C005AA534F3FEFFFFFF00000000A45ACB0C82
:100C7C00000400480C000000000400480D000000B7
:100C8C00000400480E000000000400480F000000A3
:100C9C000008004808000000000800480900000097
:080CAC0000380140004800403F
:040CB400AD01000886
:040CB80089010008A6
:080CBC00FFFFFFFF0100000033
:0400000508000B697B
:00000001FF
